{
  "contractName": "CourseMarketPlace",
  "abi": [
    {
      "inputs": [],
      "stateMutability": "nonpayable",
      "type": "constructor"
    },
    {
      "inputs": [],
      "name": "CourseHasOwner",
      "type": "error"
    },
    {
      "inputs": [],
      "name": "CourseIsNotCreated",
      "type": "error"
    },
    {
      "inputs": [],
      "name": "InvalidState",
      "type": "error"
    },
    {
      "inputs": [],
      "name": "OnlyOwner",
      "type": "error"
    },
    {
      "inputs": [
        {
          "internalType": "bytes16",
          "name": "courseId",
          "type": "bytes16"
        },
        {
          "internalType": "bytes32",
          "name": "proof",
          "type": "bytes32"
        }
      ],
      "name": "purchaseCourse",
      "outputs": [],
      "stateMutability": "payable",
      "type": "function",
      "payable": true
    },
    {
      "inputs": [],
      "name": "getCourseCount",
      "outputs": [
        {
          "internalType": "uint256",
          "name": "",
          "type": "uint256"
        }
      ],
      "stateMutability": "view",
      "type": "function",
      "constant": true
    },
    {
      "inputs": [
        {
          "internalType": "uint256",
          "name": "index",
          "type": "uint256"
        }
      ],
      "name": "getCourseHashAtIndex",
      "outputs": [
        {
          "internalType": "bytes32",
          "name": "",
          "type": "bytes32"
        }
      ],
      "stateMutability": "view",
      "type": "function",
      "constant": true
    },
    {
      "inputs": [
        {
          "internalType": "bytes32",
          "name": "courseHash",
          "type": "bytes32"
        }
      ],
      "name": "getCourseByHash",
      "outputs": [
        {
          "components": [
            {
              "internalType": "uint256",
              "name": "id",
              "type": "uint256"
            },
            {
              "internalType": "uint256",
              "name": "price",
              "type": "uint256"
            },
            {
              "internalType": "bytes32",
              "name": "proof",
              "type": "bytes32"
            },
            {
              "internalType": "address",
              "name": "owner",
              "type": "address"
            },
            {
              "internalType": "enum CourseMarketPlace.State",
              "name": "state",
              "type": "uint8"
            }
          ],
          "internalType": "struct CourseMarketPlace.Course",
          "name": "",
          "type": "tuple"
        }
      ],
      "stateMutability": "view",
      "type": "function",
      "constant": true
    },
    {
      "inputs": [],
      "name": "getContractOwner",
      "outputs": [
        {
          "internalType": "address",
          "name": "",
          "type": "address"
        }
      ],
      "stateMutability": "view",
      "type": "function",
      "constant": true
    },
    {
      "inputs": [
        {
          "internalType": "bytes32",
          "name": "courseHash",
          "type": "bytes32"
        }
      ],
      "name": "activateCourse",
      "outputs": [],
      "stateMutability": "nonpayable",
      "type": "function"
    },
    {
      "inputs": [
        {
          "internalType": "bytes32",
          "name": "courseHash",
          "type": "bytes32"
        }
      ],
      "name": "deactivateCourse",
      "outputs": [],
      "stateMutability": "nonpayable",
      "type": "function"
    }
  ],
  "bytecode": "0x608060405234801561001057600080fd5b506100203361002560201b60201c565b610068565b806000806101000a81548173ffffffffffffffffffffffffffffffffffffffff021916908373ffffffffffffffffffffffffffffffffffffffff16021790555050565b61102b806100776000396000f3fe6080604052600436106100705760003560e01c80636d11290b1161004e5780636d11290b14610106578063935d7e6d1461014357806396cfda061461016c578063d76821cb1461019757610070565b80633926257214610075578063442890d51461009e57806362e4e6ac146100c9575b600080fd5b34801561008157600080fd5b5061009c60048036038101906100979190610b77565b6101b3565b005b3480156100aa57600080fd5b506100b3610387565b6040516100c09190610d4f565b60405180910390f35b3480156100d557600080fd5b506100f060048036038101906100eb9190610b77565b6103b0565b6040516100fd9190610da5565b60405180910390f35b34801561011257600080fd5b5061012d60048036038101906101289190610ba0565b6104d8565b60405161013a9190610d6a565b60405180910390f35b34801561014f57600080fd5b5061016a60048036038101906101659190610b77565b6104f5565b005b34801561017857600080fd5b506101816107a8565b60405161018e9190610dc0565b60405180910390f35b6101b160048036038101906101ac9190610b3b565b6107b2565b005b6101bb610387565b73ffffffffffffffffffffffffffffffffffffffff163373ffffffffffffffffffffffffffffffffffffffff161461021f576040517f5fc483c500000000000000000000000000000000000000000000000000000000815260040160405180910390fd5b6102288161099f565b61025e576040517f4db0c48300000000000000000000000000000000000000000000000000000000815260040160405180910390fd5b6000600260008381526020019081526020016000209050600060028111156102af577f4e487b7100000000000000000000000000000000000000000000000000000000600052602160045260246000fd5b8160030160149054906101000a900460ff1660028111156102f9577f4e487b7100000000000000000000000000000000000000000000000000000000600052602160045260246000fd5b14610330576040517fbaf3f0f700000000000000000000000000000000000000000000000000000000815260040160405180910390fd5b60018160030160146101000a81548160ff0219169083600281111561037e577f4e487b7100000000000000000000000000000000000000000000000000000000600052602160045260246000fd5b02179055505050565b60008060009054906101000a900473ffffffffffffffffffffffffffffffffffffffff16905090565b6103b8610a7c565b600260008381526020019081526020016000206040518060a00160405290816000820154815260200160018201548152602001600282015481526020016003820160009054906101000a900473ffffffffffffffffffffffffffffffffffffffff1673ffffffffffffffffffffffffffffffffffffffff1673ffffffffffffffffffffffffffffffffffffffff1681526020016003820160149054906101000a900460ff166002811115610495577f4e487b7100000000000000000000000000000000000000000000000000000000600052602160045260246000fd5b60028111156104cd577f4e487b7100000000000000000000000000000000000000000000000000000000600052602160045260246000fd5b815250509050919050565b600060036000838152602001908152602001600020549050919050565b6104fd610387565b73ffffffffffffffffffffffffffffffffffffffff163373ffffffffffffffffffffffffffffffffffffffff1614610561576040517f5fc483c500000000000000000000000000000000000000000000000000000000815260040160405180910390fd5b61056a8161099f565b6105a0576040517f4db0c48300000000000000000000000000000000000000000000000000000000815260040160405180910390fd5b6000600260008381526020019081526020016000209050600060028111156105f1577f4e487b7100000000000000000000000000000000000000000000000000000000600052602160045260246000fd5b8160030160149054906101000a900460ff16600281111561063b577f4e487b7100000000000000000000000000000000000000000000000000000000600052602160045260246000fd5b14610672576040517fbaf3f0f700000000000000000000000000000000000000000000000000000000815260040160405180910390fd5b60008160030160009054906101000a900473ffffffffffffffffffffffffffffffffffffffff1673ffffffffffffffffffffffffffffffffffffffff1682600101546040516106c090610d3a565b60006040518083038185875af1925050503d80600081146106fd576040519150601f19603f3d011682016040523d82523d6000602084013e610702565b606091505b5050905080610746576040517f08c379a000000000000000000000000000000000000000000000000000000000815260040161073d90610d85565b60405180910390fd5b60028260030160146101000a81548160ff02191690836002811115610794577f4e487b7100000000000000000000000000000000000000000000000000000000600052602160045260246000fd5b021790555060008260010181905550505050565b6000600154905090565b600082336040516020016107c7929190610d0e565b6040516020818303038152906040528051906020012090506107e881610a0e565b1561081f576040517fb0fc2d9700000000000000000000000000000000000000000000000000000000815260040160405180910390fd5b60006001600081548092919061083490610e8e565b9190505590508160036000838152602001908152602001600020819055506040518060a001604052808281526020013481526020018481526020013373ffffffffffffffffffffffffffffffffffffffff168152602001600060028111156108c5577f4e487b7100000000000000000000000000000000000000000000000000000000600052602160045260246000fd5b8152506002600084815260200190815260200160002060008201518160000155602082015181600101556040820151816002015560608201518160030160006101000a81548173ffffffffffffffffffffffffffffffffffffffff021916908373ffffffffffffffffffffffffffffffffffffffff16021790555060808201518160030160146101000a81548160ff02191690836002811115610991577f4e487b7100000000000000000000000000000000000000000000000000000000600052602160045260246000fd5b021790555090505050505050565b60008073ffffffffffffffffffffffffffffffffffffffff166002600084815260200190815260200160002060030160009054906101000a900473ffffffffffffffffffffffffffffffffffffffff1673ffffffffffffffffffffffffffffffffffffffff1614159050919050565b60003373ffffffffffffffffffffffffffffffffffffffff166002600084815260200190815260200160002060030160009054906101000a900473ffffffffffffffffffffffffffffffffffffffff1673ffffffffffffffffffffffffffffffffffffffff16149050919050565b6040518060a00160405280600081526020016000815260200160008019168152602001600073ffffffffffffffffffffffffffffffffffffffff16815260200160006002811115610af6577f4e487b7100000000000000000000000000000000000000000000000000000000600052602160045260246000fd5b81525090565b600081359050610b0b81610fb0565b92915050565b600081359050610b2081610fc7565b92915050565b600081359050610b3581610fde565b92915050565b60008060408385031215610b4e57600080fd5b6000610b5c85828601610afc565b9250506020610b6d85828601610b11565b9150509250929050565b600060208284031215610b8957600080fd5b6000610b9784828501610b11565b91505092915050565b600060208284031215610bb257600080fd5b6000610bc084828501610b26565b91505092915050565b610bd281610df7565b82525050565b610be181610df7565b82525050565b610bf8610bf382610df7565b610ed7565b82525050565b610c0f610c0a82610e09565b610ee9565b82525050565b610c1e81610e35565b82525050565b610c2d81610e35565b82525050565b610c3c81610e7c565b82525050565b6000610c4f600f83610de6565b9150610c5a82610f70565b602082019050919050565b6000610c72600083610ddb565b9150610c7d82610f99565b600082019050919050565b60a082016000820151610c9e6000850182610cf0565b506020820151610cb16020850182610cf0565b506040820151610cc46040850182610c15565b506060820151610cd76060850182610bc9565b506080820151610cea6080850182610c33565b50505050565b610cf981610e72565b82525050565b610d0881610e72565b82525050565b6000610d1a8285610bfe565b601082019150610d2a8284610be7565b6014820191508190509392505050565b6000610d4582610c65565b9150819050919050565b6000602082019050610d646000830184610bd8565b92915050565b6000602082019050610d7f6000830184610c24565b92915050565b60006020820190508181036000830152610d9e81610c42565b9050919050565b600060a082019050610dba6000830184610c88565b92915050565b6000602082019050610dd56000830184610cff565b92915050565b600081905092915050565b600082825260208201905092915050565b6000610e0282610e52565b9050919050565b60007fffffffffffffffffffffffffffffffff0000000000000000000000000000000082169050919050565b6000819050919050565b6000819050610e4d82610f9c565b919050565b600073ffffffffffffffffffffffffffffffffffffffff82169050919050565b6000819050919050565b6000610e8782610e3f565b9050919050565b6000610e9982610e72565b91507fffffffffffffffffffffffffffffffffffffffffffffffffffffffffffffffff821415610ecc57610ecb610f05565b5b600182019050919050565b6000610ee282610ef3565b9050919050565b6000819050919050565b6000610efe82610f63565b9050919050565b7f4e487b7100000000000000000000000000000000000000000000000000000000600052601160045260246000fd5b7f4e487b7100000000000000000000000000000000000000000000000000000000600052602160045260246000fd5b60008160601b9050919050565b7f5472616e73666572206661696c65640000000000000000000000000000000000600082015250565b50565b60038110610fad57610fac610f34565b5b50565b610fb981610e09565b8114610fc457600080fd5b50565b610fd081610e35565b8114610fdb57600080fd5b50565b610fe781610e72565b8114610ff257600080fd5b5056fea2646970667358221220b3185968041a95b7a23fa14d24cf3b527387437550a8545182f441f8a6ca7b3c64736f6c63430008040033",
  "immutableReferences": {},
  "source": "// SPDX-License-Identifier: MIT\r\npragma solidity >=0.4.22 <0.9.0;\r\n\r\ncontract CourseMarketPlace {\r\n    enum State {\r\n        Purchased,\r\n        Activated,\r\n        Deactivated\r\n    }\r\n\r\n    struct Course {\r\n        uint256 id;\r\n        uint256 price;\r\n        bytes32 proof;\r\n        address owner;\r\n        State state;\r\n    }\r\n\r\n    // owner of the contract\r\n    address payable private owner;\r\n\r\n    // no of all courses + id of the course\r\n    uint256 private totalOwnedCourses;\r\n\r\n    /// Course already has a owner\r\n    error CourseHasOwner();\r\n\r\n    // mapping of course hash to course data\r\n    mapping(bytes32 => Course) private ownedCourses;\r\n\r\n    // mapping of courseId to courseHash\r\n    mapping(uint256 => bytes32) private ownedCourseHash;\r\n\r\n    // only the owner has the access\r\n    error OnlyOwner();\r\n\r\n    // Course is not created\r\n    error CourseIsNotCreated();\r\n\r\n    // course has invalid state\r\n    error InvalidState();\r\n\r\n    // check if its the current owner\r\n    modifier onlyOwner() {\r\n        if (msg.sender != getContractOwner()) {\r\n            revert OnlyOwner();\r\n        }\r\n        _;\r\n    }\r\n\r\n    constructor() {\r\n        setContractOwner(msg.sender);\r\n    }\r\n\r\n    function setContractOwner(address newOwner) private {\r\n        owner = payable(newOwner);\r\n    }\r\n\r\n    function purchaseCourse(bytes16 courseId, bytes32 proof) external payable {\r\n        bytes32 courseHash = keccak256(abi.encodePacked(courseId, msg.sender));\r\n\r\n        if (hasCourseOwnership(courseHash)) {\r\n            revert CourseHasOwner();\r\n        }\r\n\r\n        uint256 id = totalOwnedCourses++;\r\n        ownedCourseHash[id] = courseHash;\r\n        ownedCourses[courseHash] = Course({\r\n            id: id,\r\n            price: msg.value,\r\n            proof: proof,\r\n            owner: msg.sender,\r\n            state: State.Purchased\r\n        });\r\n    }\r\n\r\n    function hasCourseOwnership(bytes32 courseHash)\r\n        private\r\n        view\r\n        returns (bool)\r\n    {\r\n        return ownedCourses[courseHash].owner == msg.sender;\r\n    }\r\n\r\n    function isCourseCreated(bytes32 courseHash) private view returns (bool) {\r\n        return\r\n            ownedCourses[courseHash].owner !=\r\n            0x0000000000000000000000000000000000000000;\r\n    }\r\n\r\n    function getCourseCount() external view returns (uint256) {\r\n        return totalOwnedCourses;\r\n    }\r\n\r\n    function getCourseHashAtIndex(uint256 index)\r\n        external\r\n        view\r\n        returns (bytes32)\r\n    {\r\n        return ownedCourseHash[index];\r\n    }\r\n\r\n    function getCourseByHash(bytes32 courseHash)\r\n        external\r\n        view\r\n        returns (Course memory)\r\n    {\r\n        return ownedCourses[courseHash];\r\n    }\r\n\r\n    function getContractOwner() public view returns (address) {\r\n        return owner;\r\n    }\r\n\r\n    // Activate Course ///\r\n    function activateCourse(bytes32 courseHash) external onlyOwner {\r\n        if (!isCourseCreated(courseHash)) {\r\n            revert CourseIsNotCreated();\r\n        }\r\n\r\n        Course storage course = ownedCourses[courseHash];\r\n\r\n        if (course.state != State.Purchased) {\r\n            revert InvalidState();\r\n        }\r\n\r\n        course.state = State.Activated;\r\n    }\r\n\r\n    // Deactivate Course\r\n    function deactivateCourse(bytes32 courseHash) external onlyOwner {\r\n        if (!isCourseCreated(courseHash)) {\r\n            revert CourseIsNotCreated();\r\n        }\r\n\r\n        Course storage course = ownedCourses[courseHash];\r\n\r\n        if (course.state != State.Purchased) {\r\n            revert InvalidState();\r\n        }\r\n\r\n        (bool success, ) = course.owner.call{value: course.price}(\"\");\r\n        require(success, \"Transfer failed\");\r\n\r\n        course.state = State.Deactivated;\r\n        course.price = 0;\r\n    }\r\n}\r\n",
  "sourcePath": "C:\\PROJECTS\\sachin-project\\next-js\\dapp-online-learning\\contracts\\CourseMarketPlace.sol",
  "compiler": {
    "name": "solc",
    "version": "0.8.4+commit.c7e474f2.Emscripten.clang"
  },
  "schemaVersion": "3.4.3",
  "updatedAt": "2021-12-29T18:30:42.288Z",
  "networkType": "ethereum",
  "devdoc": {
    "kind": "dev",
    "methods": {},
    "version": 1
  },
  "userdoc": {
    "errors": {
      "CourseHasOwner()": [
        {
          "notice": "Course already has a owner"
        }
      ]
    },
    "kind": "user",
    "methods": {},
    "version": 1
  }
}