{
  "contractName": "CourseMarketPlace",
  "abi": [
    {
      "inputs": [],
      "name": "CourseHasOwner",
      "type": "error"
    },
    {
      "inputs": [
        {
          "internalType": "bytes16",
          "name": "courseId",
          "type": "bytes16"
        },
        {
          "internalType": "bytes32",
          "name": "proof",
          "type": "bytes32"
        }
      ],
      "name": "purchaseCourse",
      "outputs": [],
      "stateMutability": "payable",
      "type": "function",
      "payable": true
    }
  ],
  "bytecode": "0x608060405234801561001057600080fd5b506104e2806100206000396000f3fe60806040526004361061001e5760003560e01c8063d76821cb14610023575b600080fd5b61003d600480360381019061003891906102c3565b61003f565b005b6000823360405160200161005492919061032d565b6040516020818303038152906040528051906020012090506100758161022b565b156100ac576040517fb0fc2d9700000000000000000000000000000000000000000000000000000000815260040160405180910390fd5b60008060008154809291906100c0906103cb565b9190505590508160026000838152602001908152602001600020819055506040518060a001604052808281526020013481526020018481526020013373ffffffffffffffffffffffffffffffffffffffff16815260200160006002811115610151577f4e487b7100000000000000000000000000000000000000000000000000000000600052602160045260246000fd5b8152506001600084815260200190815260200160002060008201518160000155602082015181600101556040820151816002015560608201518160030160006101000a81548173ffffffffffffffffffffffffffffffffffffffff021916908373ffffffffffffffffffffffffffffffffffffffff16021790555060808201518160030160146101000a81548160ff0219169083600281111561021d577f4e487b7100000000000000000000000000000000000000000000000000000000600052602160045260246000fd5b021790555090505050505050565b60003373ffffffffffffffffffffffffffffffffffffffff166001600084815260200190815260200160002060030160009054906101000a900473ffffffffffffffffffffffffffffffffffffffff1673ffffffffffffffffffffffffffffffffffffffff16149050919050565b6000813590506102a88161047e565b92915050565b6000813590506102bd81610495565b92915050565b600080604083850312156102d657600080fd5b60006102e485828601610299565b92505060206102f5858286016102ae565b9150509250929050565b61031061030b82610359565b610414565b82525050565b6103276103228261036b565b610426565b82525050565b60006103398285610316565b60108201915061034982846102ff565b6014820191508190509392505050565b6000610364826103a1565b9050919050565b60007fffffffffffffffffffffffffffffffff0000000000000000000000000000000082169050919050565b6000819050919050565b600073ffffffffffffffffffffffffffffffffffffffff82169050919050565b6000819050919050565b60006103d6826103c1565b91507fffffffffffffffffffffffffffffffffffffffffffffffffffffffffffffffff82141561040957610408610442565b5b600182019050919050565b600061041f82610430565b9050919050565b6000819050919050565b600061043b82610471565b9050919050565b7f4e487b7100000000000000000000000000000000000000000000000000000000600052601160045260246000fd5b60008160601b9050919050565b6104878161036b565b811461049257600080fd5b50565b61049e81610397565b81146104a957600080fd5b5056fea264697066735822122020e804ca10e41b51fa87e8e69a603e82c3ac2f12d1c322cfb98dbda649d0a8e564736f6c63430008040033",
  "immutableReferences": {},
  "source": "// SPDX-License-Identifier: MIT\r\npragma solidity >=0.4.22 <0.9.0;\r\n\r\ncontract CourseMarketPlace {\r\n    enum State {\r\n        Purchased,\r\n        Activated,\r\n        Deactivated\r\n    }\r\n\r\n    struct Course {\r\n        uint256 id;\r\n        uint256 price;\r\n        bytes32 proof;\r\n        address owner;\r\n        State state;\r\n    }\r\n\r\n    // no of all courses + id of the course\r\n    uint256 private totalOwnedCourses;\r\n\r\n    /// Course already has a owner\r\n    error CourseHasOwner();\r\n\r\n    // mapping of course hash to course data\r\n    mapping(bytes32 => Course) private ownedCourses;\r\n\r\n    // mapping of courseId to courseHash\r\n    mapping(uint256 => bytes32) private ownedCourseHash;\r\n\r\n    function purchaseCourse(bytes16 courseId, bytes32 proof) external payable {\r\n        bytes32 courseHash = keccak256(abi.encodePacked(courseId, msg.sender));\r\n\r\n        if (hasCourseOwnership(courseHash)) {\r\n            revert CourseHasOwner();\r\n        }\r\n\r\n        uint256 id = totalOwnedCourses++;\r\n        ownedCourseHash[id] = courseHash;\r\n        ownedCourses[courseHash] = Course({\r\n            id: id,\r\n            price: msg.value,\r\n            proof: proof,\r\n            owner: msg.sender,\r\n            state: State.Purchased\r\n        });\r\n    }\r\n\r\n    function hasCourseOwnership(bytes32 courseHash)\r\n        private\r\n        view\r\n        returns (bool)\r\n    {\r\n        return ownedCourses[courseHash].owner == msg.sender;\r\n    }\r\n}\r\n",
  "sourcePath": "C:\\PROJECTS\\sachin-project\\next-js\\dapp-online-learning\\contracts\\CourseMarketPlace.sol",
  "compiler": {
    "name": "solc",
    "version": "0.8.4+commit.c7e474f2.Emscripten.clang"
  },
  "schemaVersion": "3.4.3",
  "updatedAt": "2021-12-24T23:10:24.788Z",
  "networkType": "ethereum",
  "devdoc": {
    "kind": "dev",
    "methods": {},
    "version": 1
  },
  "userdoc": {
    "errors": {
      "CourseHasOwner()": [
        {
          "notice": "Course already has a owner"
        }
      ]
    },
    "kind": "user",
    "methods": {},
    "version": 1
  }
}